:0400000095EF01F087
:10000800F0A009D01D501E1006E1010E1F6E000E53
:10001800206E8284F090F0A209D01D501E1006E1D7
:10002800010E1D6E000E1E6E8286F092F2A406D09E
:0E0038008278B50ED66EB30ED76EF29411001C
:1000460083808084120E0B6EC20E0C6E660E0D6ED1
:100056000D2EFED70C2EFCD70B2EFAD70000839060
:0E0066008094010E196E000E1A6E828A12002E
:1000740080808270030E0B6E8A0E0C6E550E0D6E10
:100084000D2EFED70C2EFCD70B2EFAD70000000045
:100094008270120E0B6EC20E0C6E660E0D6E0D2E5D
:1000A400FED70C2EFCD70B2EFAD700008090010E41
:0A00B400196E000E1A6E828A120007
:1000BE0080868272030E0B6E8A0E0C6E550E0D6EBE
:1000CE000D2EFED70C2EFCD70B2EFAD700000000FB
:1000DE008272120E0B6EC20E0C6E660E0D6E0D2E11
:1000EE00FED70C2EFCD70B2EFAD700008096010EF1
:0A00FE00196E000E1A6E828A1200BD
:1001080083808082120E0B6EC20E0C6E660E0D6E10
:100118000D2EFED70C2EFCD70B2EFAD7000083909D
:0E0128008092010E196E000E1A6E828A12006D
:1001360019501A10D8A472D082AC1AD08380010E3E
:10014600176E000E186E8084120E0B6EC20E0C6EA9
:10015600660E0D6E0D2EFED70C2EFCD70B2EFAD783
:10016600000083908094010E196E000E1A6E828A2A
:1001760081A00FD0175018100CE119501A1009E180
:10018600000E161802E1010E151802E170DF01D00B
:1001960057DF81A60FD0175018100CE119501A100E
:1001A60009E1000E161802E1020E151802E15FDFE2
:1001B60001D046DF81A80FD0175018100CE1195056
:1001C6001A1009E1000E161802E1030E151802E1D5
:1001D6004EDF01D035DF81AA0FD0175018100CE181
:1001E60019501A1009E1000E161802E1040E15182E
:1001F60002E13DDF01D024DF81AC0FD0175018108B
:100206000CE119501A1009E1000E161802E1050E4C
:10021600151802E12CDF01D013DF8AD7196A1A6A92
:020226001200C4
:100228000900F5CFE6FF0006FBE10106F9E112003F
:1002380019501A10D8A472D082AC1AD08380010E3B
:10024800176E000E186E8082120E0B6EC20E0C6EA8
:10025800660E0D6E0D2EFED70C2EFCD70B2EFAD780
:10026800000083908092010E196E000E1A6E828A29
:1002780081A00FD0175018100CE119501A1009E17D
:10028800000E161802E1010E151802E114DF01D064
:1002980037DF81A60FD0175018100CE119501A102B
:1002A80009E1000E161802E1020E151802E103DF3B
:1002B80001D026DF81A80FD0175018100CE1195073
:1002C8001A1009E1000E161802E1030E151802E1D2
:1002D800F2DE01D015DF81AA0FD0175018100CE1FB
:1002E80019501A1009E1000E161802E1040E15182B
:1002F80002E1E1DE01D004DF81AC0FD01750181005
:100308000CE119501A1009E1000E161802E1050E49
:10031800151802E1D0DE01D0F3DE8AD7196A1A6A0D
:020328001200C1
:10032A001F6A206A1D6A1E6A156A166A176A186A9F
:10033A00196A1A6A010E1B6E000E1C6E0F0EC16E30
:10034A00F28EF28CD08EF086F090F08C9382F19A35
:10035A00F088F092F08E9384F198946A826A860EFD
:10036A00D56EB50ED66EB30ED76EF294F184F28CBA
:10037A00F28AF00E926EFE0E936E400E946E959077
:10038A001F50201019E11D501E1016E1000E1C18F6
:10039A0002E1010E1B180FE1828E1A0E0B6E5E0E21
:1003AA000C6E6E0E0D6E0D2EFED70C2EFCD70B2E7C
:1003BA00FAD70000829EE4D71F50201059E0829E8F
:1003CA00828A000E1C1802E1010E1B1807E1040EB6
:1003DA00156E000E166EAADE8294829A000E1C1802
:1003EA0002E1020E1B1807E1010E156E000E166ED1
:1003FA009DDE8294829A000E1C1802E1030E1B18DD
:10040A0007E1020E156E000E166E90DE8294829A35
:10041A00000E1C1802E1040E1B1807E1010E156EEE
:10042A00000E166E83DE8294829A000E1C1802E178
:10043A00050E1B1807E1040E156E000E166E76DE09
:10044A008294829A800E006E800E1C18005C02E173
:10045A001B50050806E31B4A1C2A1F6A206A82945D
:10046A0007D0010E1B6E000E1C6E1F6A206A829452
:10047A001D501E1059E0829E828A000E1C1802E14D
:10048A00010E1B1807E1040E156E000E166ECFDE64
:10049A008296829A000E1C1802E1020E1B1807E1CE
:1004AA00010E156E000E166EC2DE8296829A000E3C
:1004BA001C1802E1030E1B1807E1020E156E000E4E
:1004CA00166EB5DE8296829A000E1C1802E1040EA0
:1004DA001B1807E1010E156E000E166EA8DE829635
:1004EA00829A000E1C1802E1050E1B1807E1040E81
:1004FA00156E000E166E9BDE8296829A800E006E34
:10050A00800E1C18005C02E11B50050806E31B4A1A
:10051A001C2A1D6A1E6A829607D0010E1B6E000EE7
:0C052A001C6E1D6A1E6A82962BD7FFD73C
:020000040030CA
:0D000100021F1EFF8181FF0FC00FE00F40A6
:00000001FF
